:100000000C9462000C948A000C948A000C948A0070
:100010000C948A000C948A000C948A000C94DA03E5
:100020000C948A000C948A000C948A000C941E0391
:100030000C948A000C948A000C948A000C948A0018
:100040000C947C020C948A000C94EC020C94C60272
:100050000C948A000C948A000C948A000C948A00F8
:100060000C948A000C948A00000000080002010031
:100070000003040700000000000000000000000072
:10008000240027002A000000000023002600290089
:1000900000000000250028002B00040404040404D0
:1000A0000404020202020202030303030303010227
:1000B00004081020408001020408102001020408F6
:1000C0001020FF0311241FBECFEFD8E0DEBFCDBF4D
:1000D00011E0A0E0B1E0E0EBFEE002C005900D927F
:1000E000AA31B107D9F722E0AAE1B1E001C01D921F
:1000F000A130B207E1F710E0C2E6D0E004C02197DA
:10010000FE010E945007C136D107C9F70E94990429
:100110000C9456070C9400008F929F92AF92BF925E
:10012000FF920F931F93CF93DF93F090FE012BE08C
:100130002F1508F44CC02091000208E512E0021BC4
:10014000110927FD1395000F111F000F111F20919A
:10015000FF01C8E8D0E0C21BD10927FDD395CC0F21
:10016000DD1FCC0FDD1F4E010D2E000CAA08BB08B1
:100170009801012E000C440B550B281939094A0926
:100180005B09DC010E940B0724EB30E040E050E00B
:100190000E94E106820E931EA41EB51E8C169D06BB
:1001A0002CF0E801801691060CF4E4012297CC0FA4
:1001B000DD1F2FB7F8948F2D90E0FC01EE0FFF1F8D
:1001C000E80FF91FE953FE4FD283C1832FBFDF91A0
:1001D000CF911F910F91FF90BF90AF909F908F9004
:1001E000089590E0FC01E859FF4F2491FC01E2558D
:1001F000FF4F3491FC01E656FF4FE491EE23C9F026
:10020000222339F0233001F1A8F4213019F12230F2
:1002100029F1F0E0EE0FFF1FE057FF4FA591B491D9
:100220008FB7F894EC91611126C030953E233C9332
:100230008FBF08952730A9F02830C9F0243049F73E
:10024000809180008F7D03C0809180008F778093A4
:100250008000DFCF84B58F7784BDDBCF84B58F7D01
:10026000FBCF8091B0008F778093B000D2CF809188
:10027000B0008F7DF9CF3E2BDACF3FB7F894809155
:10028000260190912701A0912801B091290126B55E
:10029000A89B05C02F3F19F00196A11DB11D3FBFBE
:1002A000BA2FA92F982F8827BC01CD01620F711D8D
:1002B000811D911D42E0660F771F881F991F4A9587
:1002C000D1F70895AF92BF92CF92DF92EF92FF9253
:1002D0000F931F93CF93DF936C017B018B01040F6E
:1002E000151FEB015E01AE18BF08C017D10759F00A
:1002F0006991D601ED91FC910190F081E02DC6014C
:100300000995892B79F7C501DF91CF911F910F9145
:10031000FF90EF90DF90CF90BF90AF900895FC01D9
:10032000538D448D252F30E0842F90E0821B930B5A
:10033000541710F0CF96089501970895FC01918D00
:10034000828D981761F0A28DAE0FBF2FB11D5D9603
:100350008C91928D9F5F9F73928F90E008958FEFA5
:100360009FEF0895FC01918D828D981731F0828D59
:10037000E80FF11D858D90E008958FEF9FEF0895B0
:10038000FC01918D228D892F90E0805C9F4F821B14
:1003900091098F73992708958AE291E00E94C00124
:1003A00021E0892B09F420E0822F089580E090E07D
:1003B000892B29F00E94CC0181110C940000089532
:1003C000FC01A48DA80FB92FB11DA35ABF4F2C91CA
:1003D000848D90E001968F739927848FA689B789C1
:1003E0002C93A089B1898C91837080648C93938DB8
:1003F000848D981306C00288F389E02D80818F7D5B
:1004000080830895EF92FF920F931F93CF93DF9312
:10041000EC0181E0888F9B8D8C8D98131AC0E88940
:10042000F989808185FF15C09FB7F894EE89FF890F
:100430006083E889F98980818370806480839FBFAD
:1004400081E090E0DF91CF911F910F91FF90EF90AD
:100450000895F62E0B8D10E00F5F1F4F0F731127BD
:10046000E02E8C8D8E110CC00FB607FCFACFE889F8
:10047000F989808185FFF5CFCE010E94E001F1CF9F
:10048000EB8DEC0FFD2FF11DE35AFF4FF0829FB76C
:10049000F8940B8FEA89FB8980818062CFCFCF935C
:1004A000DF93EC01888D8823B9F0AA89BB89E8899C
:1004B000F9898C9185FD03C0808186FD0DC00FB642
:1004C00007FCF7CF8C9185FFF2CF808185FFEDCFC0
:1004D000CE010E94E001E9CFDF91CF910895FC01A8
:1004E00001900020E9F73197AF01481B590BBC017F
:1004F0008AE291E00C9462011F920F920FB60F9264
:1005000011242F933F938F939F93AF93BF93809129
:10051000220190912301A0912401B09125013091F5
:10052000210123E0230F2D3758F50196A11DB11DA0
:10053000209321018093220190932301A093240111
:10054000B09325018091260190912701A091280167
:10055000B09129010196A11DB11D809326019093B0
:100560002701A0932801B0932901BF91AF919F91DA
:100570008F913F912F910F900FBE0F901F90189564
:1005800026E8230F0296A11DB11DD2CF1F920F9214
:100590000FB60F9211242F933F934F935F936F9356
:1005A0007F938F939F93AF93BF93EF93FF938AE2D1
:1005B00091E00E94E001FF91EF91BF91AF919F9177
:1005C0008F917F916F915F914F913F912F910F90FC
:1005D0000FBE0F901F9018951F920F920FB60F929B
:1005E00011242F938F939F93EF93FF93E0913A0100
:1005F000F0913B018081E0914001F091410182FD49
:100600001BC09081809143018F5F8F7320914401C3
:10061000821741F0E0914301F0E0E65DFE4F958FD7
:1006200080934301FF91EF919F918F912F910F90B4
:100630000FBE0F901F9018958081F4CF1F920F92DC
:100640000FB60F9211242F933F934F935F936F93A5
:100650007F938F939F93AF93BF93CF93DF93EF934A
:10066000FF9380911E01C091EB01D0E087FF24C071
:10067000109285001092840080911E018F5F8093FC
:100680001E0180911E01082E000C990B8C179D07EE
:1006900024F480911E018C30C4F1809184009091EB
:1006A0008500049680349C4908F47AC080918400C7
:1006B00090918500049676C080911E01082E000C52
:1006C000990B8C179D07C4F6E0911E018E2FEE0F3B
:1006D000990BFC01EE0FFF1FE80FF91FE953FE4FC6
:1006E000808186FFC9CFE0911E018E2FEE0F990BFE
:1006F000FC01EE0FFF1FE80FF91FE953FE4F808149
:1007000060E08F730E94F100B7CF20918400309198
:100710008500E0911E018E2FEE0F990BFC01EE0F6C
:10072000FF1FE80FF91FE953FE4F81819281820F6D
:10073000931F9093890080938800E0911E018E2F73
:10074000EE0F990BFC01EE0FFF1FE80FF91FE953A5
:10075000FE4F808186FF11C0E0911E018E2FEE0FAB
:10076000990BFC01EE0FFF1FE80FF91FE953FE4F35
:10077000808161E08F730E94F100FF91EF91DF9122
:10078000CF91BF91AF919F918F917F916F915F9129
:100790004F913F912F910F900FBE0F901F90189582
:1007A00080E49CE990938900809388008FEF809388
:1007B0001E01E3CF1F920F920FB60F9211242F93B9
:1007C0003F934F935F936F937F938F939F93AF93D9
:1007D000BF93EF93FF93F0E0E0E00995FF91EF9175
:1007E000BF91AF919F918F917F916F915F914F9149
:1007F0003F912F910F900FBE0F901F901895109260
:100800002D0110922C0188EE93E0A0E0B0E08093DF
:100810002E0190932F01A0933001B093310184E019
:1008200091E090932B0180932A0185EC90E09093C6
:1008300037018093360184EC90E0909339018093E6
:10084000380180EC90E090933B0180933A0181EC79
:1008500090E090933D0180933C0182EC90E0909376
:100860003F0180933E0186EC90E09093410180939C
:1008700040011092430110924401109245011092E0
:1008800046018091EB018C3008F04FC091E0980F49
:100890009093EB018093FE0190E0FC01EE0FFF1FAF
:1008A000E80FF91FE953FE4F88EB9BE092838183A9
:1008B000E8EBF0E0E491E093F001E7EBF0E0E491A5
:1008C000E093F10184EA90E0FC012491E22FF0E052
:1008D000EE0FFF1FE057FF4F259134913093F30146
:1008E0002093F201E3EAF0E0E491F0E0EE0FFF1F65
:1008F000EA57FF4F259134913093F5012093F4018D
:10090000FC018491E82FF0E0EE0FFF1FE458FF4F49
:10091000859194919093F7018093F60181EC9CE28C
:100920009093F9018093F80108958FEF8093FE0171
:10093000BFCFCF93DF93CDB7DEB7A1970FB6F894B3
:10094000DEBF0FBECDBF789484B5826084BD84B510
:10095000816084BD85B5826085BD85B5816085BDBA
:1009600080916E00816080936E0010928100809172
:1009700081008260809381008091810081608093FA
:100980008100809180008160809380008091B1001F
:1009900084608093B1008091B00081608093B0004A
:1009A00080917A00846080937A0080917A008260DE
:1009B00080937A0080917A00816080937A008091A0
:1009C0007A00806880937A001092C100E0913A0129
:1009D000F0913B0182E08083E0913601F091370194
:1009E0001082E0913801F09139018FEC80831092F0
:1009F0004201E0913E01F0913F0186E08083E09169
:100A00003C01F0913D01808180618083E0913C0157
:100A1000F0913D01808188608083E0913C01F091FC
:100A20003D01808180688083E0913C01F0913D012F
:100A300080818F7D80838091FE018C3008F068C0BA
:100A4000E5EBF0E02491E1EAF0E08491882399F06D
:100A500090E0880F991FFC01E458FF4FA591B491D5
:100A6000FC01E057FF4F859194918FB7F894EC917A
:100A7000E22BEC938FBF8091FE01282F30E0F9012B
:100A8000EE0FFF1FE20FF31FE953FE4F9081907CA2
:100A9000976090831092FF01109200022CE0622F69
:100AA0000E944407829FB001112430E020E0AB0196
:100AB000420F531FFA01EE0FFF1FE40FF51FE9531A
:100AC000FE4F908196FD16C02F5F3F4F2C303105B1
:100AD00071F781110FC01092800082E08093810035
:100AE0001092850010928400B19A80916F0082600C
:100AF00080936F00E091FE018E2F90E0FC01EE0FDD
:100B0000FF1FE80FF91FE953FE4F80818064808347
:100B10009AE0892E912CA12CB12C20E0222E20E0ED
:100B2000322EE091F601F091F70180819091F00171
:100B3000892B8083E091F201F091F3019081809103
:100B4000F0018095892380838BE090E00197F1F795
:100B5000E091F201F091F30180819091F001892BF5
:100B6000808383E290E00197F1F7E091F201F09148
:100B7000F30190818091F001809589238083E09139
:100B8000F601F091F70190818091F0018095892321
:100B90008083E091F401F091F50180819091F10161
:100BA000892309F483C090E080E0BC0190E080E0FC
:100BB00029E330E040E050E00E9413073093200129
:100BC00020931F0182E191E00E946F02C0901F01FB
:100BD000D09020010D2C000CEE08FF08F7FED8C0C5
:100BE0006DE28AE291E00E94020222273327A901E6
:100BF0002C193D094E095F0919A28E010F5D1F4F87
:100C0000CA01B901A50194010E941307605DF801B2
:100C100062938F01211531054105510589F70115B1
:100C2000110519F0C8010E946F0287E191E00E944E
:100C30006F0280911F0190912001009739F00B976E
:100C40000CF4BCC084EB90E00E948C000E943D013B
:100C50002B013C0182E3C82ED12CE12CF12C0E9407
:100C60003D016419750986099709683E734081053D
:100C70009105A8F3F1E0CF1AD108E108F10828EEB8
:100C8000420E23E0521E611C711CC114D104E10408
:100C9000F10429F72114310409F443CF0E94CC0157
:100CA000882309F43ECF0E9400003BCF0E943D0103
:100CB000AB01BC018091F8019091F901B0E0A0E096
:100CC0008855994EAF4FBF4F840F951FA61FB71F72
:100CD0008093FA019093FB01A093FC01B093FD0176
:100CE000E091F401F091F50180819091F101892367
:100CF00081F40E943D010091FA011091FB012091C5
:100D0000FC013091FD01061717072807390740F746
:100D10004ACF0E943D012091F8013091F901620F04
:100D2000731F811D911D6093FA017093FB018093E5
:100D3000FC019093FD01E091F401F091F5018081B7
:100D40009091F101892381F00E943D010091FA0107
:100D50001091FB012091FC013091FD01061717074E
:100D60002807390740F71FCF0E943D012091F80165
:100D70003091F901A901455051092091FA013091B2
:100D8000FB01FA01E21BF30BCF01860F971F0DCF7A
:100D9000A701960119A28E010F5D1F4FCA01B9016B
:100DA000A50194010E941307605DF80162938F0111
:100DB000211531054105510589F731CF8AE590E0CC
:100DC00043CF052E97FB1EF400940E94F80657FDB2
:100DD00007D00E94130707FC03D04EF40C94F806CA
:100DE00050954095309521953F4F4F4F5F4F089557
:100DF00090958095709561957F4F8F4F9F4F089587
:100E00000E943507A59F900DB49F900DA49F800D63
:100E1000911D11240895B7FF0C9400070E9400074C
:100E2000821B930B0895A1E21A2EAA1BBB1BFD0186
:100E30000DC0AA1FBB1FEE1FFF1FA217B307E407B9
:100E4000F50720F0A21BB30BE40BF50B661F771F11
:100E5000881F991F1A9469F76095709580959095F1
:100E60009B01AC01BD01CF010895A29FB001B39FCA
:100E7000C001A39F700D811D1124911DB29F700DA3
:100E8000811D1124911D0895991B79E004C0991FBB
:100E9000961708F0961B881F7A95C9F780950895D4
:100EA000EE0FFF1F0590F491E02D0994F894FFCF09
:100EB00000000000020262018F014F02C0019E018A
:0A0EC000B201636D3A20000D0A0034
:00000001FF
